:0C0000001EC0FECFB5C0FCCFFBCFFACF76
:10000C00F9CFF8CFF7CFF6CFF5CFF4CFF3CFF2CFC0
:10001C00F1CFF0CFEFCFEECFEDCFECCFEBCFEACFF0
:10002C00E9CFE8CFE7CFE6CF0000020003003400B1
:10003C000000F894EE27EFBBE5BFF8E1A895A4B754
:10004C00A77FA4BFF0936000E09360008DE0A2E076
:10005C00BB27ED938A95E9F780E092E0A0E0B1E050
:10006C00ED930197E9F7E6E3F0E085919591009720
:10007C0061F0A591B59105901590BF01F001059027
:10008C000D920197E1F7FB01F0CFE0E0EEBBEFEF53
:10009C00EDBFE2E0EEBFC0E8D1E08AC0E2E0E8BD2F
:1000AC004D9AE8B5E23819F0E0E0E61509F007C022
:1000BC00E8B5EF5FF9D0E23809F4FCD0F2CFE8B53F
:1000CC00E23019F0E0E0E61509F007C0E8B5E150C0
:1000DC00EBD0E23009F4EED0F2CF08954D9AEFEF69
:1000EC00E8BD08954D98E9D0A2E3EAD0F1D0CFD085
:1000FC00D2D00895BA93AA9338B44424EFEFE8BD54
:10010C00A881B981E5D0D9D0A881B981E1D038BC1A
:10011C0022960895E7D000E010E0CFD000E010E088
:10012C000730E0E01E076CF4CDD039F4ECE3F0E0DE
:10013C0060E070E0DF01DEDF01C00CC00F5F1F4F1D
:10014C00EFCFC0D009F4C1D0BDD009F4BED0BAD025
:10015C0009F4BBD0CAD008956394E3E0E61508F423
:10016C00662408950A921A92FA926A937A938A9361
:10017C009A93AA93BA93EA93FA93EFB7EA93A5D01A
:10018C004A9907C04A9904C0A4E69AD0B3DFFACFC3
:10019C0001C0E2DFE991EFBFF991E991B991A99121
:1001AC009991899179916991F99019900990189583
:1001BC00E0E8E0936100E0E0E0936100E5B9E4B9C8
:1001CC00E8B9E7B9E4E0EBB9E0E2EAB9E1E2E4BDB1
:1001DC00E4E0E5BDE0E0E6BDE7BD6FD0E0E0E09334
:1001EC008000E0938100E0938500E0938400E0932D
:1001FC008700E0938600E0938900E0938800E09309
:10020C008B00E0938A00E093B600E093B000E0939B
:10021C00B100E093B200E093B300E093B400E0933C
:10022C006900E2E0EDBBECBBE0E0E0936800E0933A
:10023C006E00E0936F00E0937000E093C100E0E883
:10024C00E0BFE0E0E0937B00E0937F00E0937A0076
:10025C00ECBDE093BC007894662011F41FDFFCCF5A
:10026C00E1E0E61511F43ADFFBCF2CD011F452DFAC
:10027C00FCCFE4E0E61521F4A4E622D03BDFF9CF75
:10028C00E3E0E61511F42EDFFBCFE6CFFFCFE3B7AB
:10029C00E160E3BF0895E3B7E17FE460E3BFEFB74C
:1002AC0078948895EFBF0895E8BDA4E1B0E010D034
:1002BC00E8B50895A0E0B0E00BC0E0E0E8BD08951B
:1002CC00B0E00895E2E0E6150895ACE2B1E000C0BC
:1002DC00109639F080ED97E00197F1F7A8951197FA
:1002EC00C9F708951A930A930895099119910895DD
:00000001FF
